{
  "_format": "hh-sol-artifact-1",
  "contractName": "Genesis",
  "sourceName": "contracts/Genesis.sol",
  "abi": [
    {
      "inputs": [
        {
          "internalType": "uint256",
          "name": "_projectTax",
          "type": "uint256"
        }
      ],
      "stateMutability": "nonpayable",
      "type": "constructor"
    },
    {
      "anonymous": false,
      "inputs": [
        {
          "indexed": false,
          "internalType": "uint256",
          "name": "id",
          "type": "uint256"
        },
        {
          "indexed": false,
          "internalType": "string",
          "name": "actionType",
          "type": "string"
        },
        {
          "indexed": true,
          "internalType": "address",
          "name": "executor",
          "type": "address"
        },
        {
          "indexed": false,
          "internalType": "uint256",
          "name": "timestamp",
          "type": "uint256"
        }
      ],
      "name": "Action",
      "type": "event"
    },
    {
      "inputs": [
        {
          "internalType": "uint256",
          "name": "id",
          "type": "uint256"
        }
      ],
      "name": "backProject",
      "outputs": [
        {
          "internalType": "bool",
          "name": "",
          "type": "bool"
        }
      ],
      "stateMutability": "payable",
      "type": "function"
    },
    {
      "inputs": [],
      "name": "balance",
      "outputs": [
        {
          "internalType": "uint256",
          "name": "",
          "type": "uint256"
        }
      ],
      "stateMutability": "view",
      "type": "function"
    },
    {
      "inputs": [
        {
          "internalType": "uint256",
          "name": "_taxPct",
          "type": "uint256"
        }
      ],
      "name": "changeTax",
      "outputs": [],
      "stateMutability": "nonpayable",
      "type": "function"
    },
    {
      "inputs": [
        {
          "internalType": "string",
          "name": "title",
          "type": "string"
        },
        {
          "internalType": "string",
          "name": "description",
          "type": "string"
        },
        {
          "internalType": "string",
          "name": "slug",
          "type": "string"
        },
        {
          "internalType": "string",
          "name": "imageURL",
          "type": "string"
        },
        {
          "internalType": "uint256",
          "name": "cost",
          "type": "uint256"
        },
        {
          "internalType": "uint256",
          "name": "expiresAt",
          "type": "uint256"
        }
      ],
      "name": "createProject",
      "outputs": [
        {
          "internalType": "bool",
          "name": "",
          "type": "bool"
        }
      ],
      "stateMutability": "nonpayable",
      "type": "function"
    },
    {
      "inputs": [
        {
          "internalType": "uint256",
          "name": "id",
          "type": "uint256"
        }
      ],
      "name": "deleteProject",
      "outputs": [
        {
          "internalType": "bool",
          "name": "",
          "type": "bool"
        }
      ],
      "stateMutability": "nonpayable",
      "type": "function"
    },
    {
      "inputs": [
        {
          "internalType": "uint256",
          "name": "id",
          "type": "uint256"
        }
      ],
      "name": "getBackers",
      "outputs": [
        {
          "components": [
            {
              "internalType": "address",
              "name": "owner",
              "type": "address"
            },
            {
              "internalType": "uint256",
              "name": "contribution",
              "type": "uint256"
            },
            {
              "internalType": "uint256",
              "name": "timestamp",
              "type": "uint256"
            },
            {
              "internalType": "bool",
              "name": "refunded",
              "type": "bool"
            }
          ],
          "internalType": "struct Genesis.backerStruct[]",
          "name": "",
          "type": "tuple[]"
        }
      ],
      "stateMutability": "view",
      "type": "function"
    },
    {
      "inputs": [
        {
          "internalType": "uint256",
          "name": "id",
          "type": "uint256"
        }
      ],
      "name": "getProjectById",
      "outputs": [
        {
          "components": [
            {
              "internalType": "uint256",
              "name": "id",
              "type": "uint256"
            },
            {
              "internalType": "address",
              "name": "owner",
              "type": "address"
            },
            {
              "internalType": "string",
              "name": "title",
              "type": "string"
            },
            {
              "internalType": "string",
              "name": "description",
              "type": "string"
            },
            {
              "internalType": "string",
              "name": "slug",
              "type": "string"
            },
            {
              "internalType": "string",
              "name": "imageURL",
              "type": "string"
            },
            {
              "internalType": "uint256",
              "name": "cost",
              "type": "uint256"
            },
            {
              "internalType": "uint256",
              "name": "raised",
              "type": "uint256"
            },
            {
              "internalType": "uint256",
              "name": "timestamp",
              "type": "uint256"
            },
            {
              "internalType": "uint256",
              "name": "expiresAt",
              "type": "uint256"
            },
            {
              "internalType": "uint256",
              "name": "backers",
              "type": "uint256"
            },
            {
              "internalType": "enum Genesis.statusEnum",
              "name": "status",
              "type": "uint8"
            }
          ],
          "internalType": "struct Genesis.projectStruct",
          "name": "",
          "type": "tuple"
        }
      ],
      "stateMutability": "view",
      "type": "function"
    },
    {
      "inputs": [
        {
          "internalType": "string",
          "name": "_slug",
          "type": "string"
        }
      ],
      "name": "getProjectBySlug",
      "outputs": [
        {
          "components": [
            {
              "internalType": "uint256",
              "name": "id",
              "type": "uint256"
            },
            {
              "internalType": "address",
              "name": "owner",
              "type": "address"
            },
            {
              "internalType": "string",
              "name": "title",
              "type": "string"
            },
            {
              "internalType": "string",
              "name": "description",
              "type": "string"
            },
            {
              "internalType": "string",
              "name": "slug",
              "type": "string"
            },
            {
              "internalType": "string",
              "name": "imageURL",
              "type": "string"
            },
            {
              "internalType": "uint256",
              "name": "cost",
              "type": "uint256"
            },
            {
              "internalType": "uint256",
              "name": "raised",
              "type": "uint256"
            },
            {
              "internalType": "uint256",
              "name": "timestamp",
              "type": "uint256"
            },
            {
              "internalType": "uint256",
              "name": "expiresAt",
              "type": "uint256"
            },
            {
              "internalType": "uint256",
              "name": "backers",
              "type": "uint256"
            },
            {
              "internalType": "enum Genesis.statusEnum",
              "name": "status",
              "type": "uint8"
            }
          ],
          "internalType": "struct Genesis.projectStruct",
          "name": "",
          "type": "tuple"
        }
      ],
      "stateMutability": "view",
      "type": "function"
    },
    {
      "inputs": [],
      "name": "getProjects",
      "outputs": [
        {
          "components": [
            {
              "internalType": "uint256",
              "name": "id",
              "type": "uint256"
            },
            {
              "internalType": "address",
              "name": "owner",
              "type": "address"
            },
            {
              "internalType": "string",
              "name": "title",
              "type": "string"
            },
            {
              "internalType": "string",
              "name": "description",
              "type": "string"
            },
            {
              "internalType": "string",
              "name": "slug",
              "type": "string"
            },
            {
              "internalType": "string",
              "name": "imageURL",
              "type": "string"
            },
            {
              "internalType": "uint256",
              "name": "cost",
              "type": "uint256"
            },
            {
              "internalType": "uint256",
              "name": "raised",
              "type": "uint256"
            },
            {
              "internalType": "uint256",
              "name": "timestamp",
              "type": "uint256"
            },
            {
              "internalType": "uint256",
              "name": "expiresAt",
              "type": "uint256"
            },
            {
              "internalType": "uint256",
              "name": "backers",
              "type": "uint256"
            },
            {
              "internalType": "enum Genesis.statusEnum",
              "name": "status",
              "type": "uint8"
            }
          ],
          "internalType": "struct Genesis.projectStruct[]",
          "name": "",
          "type": "tuple[]"
        }
      ],
      "stateMutability": "view",
      "type": "function"
    },
    {
      "inputs": [],
      "name": "getProjectsByAddress",
      "outputs": [
        {
          "components": [
            {
              "internalType": "uint256",
              "name": "id",
              "type": "uint256"
            },
            {
              "internalType": "address",
              "name": "owner",
              "type": "address"
            },
            {
              "internalType": "string",
              "name": "title",
              "type": "string"
            },
            {
              "internalType": "string",
              "name": "description",
              "type": "string"
            },
            {
              "internalType": "string",
              "name": "slug",
              "type": "string"
            },
            {
              "internalType": "string",
              "name": "imageURL",
              "type": "string"
            },
            {
              "internalType": "uint256",
              "name": "cost",
              "type": "uint256"
            },
            {
              "internalType": "uint256",
              "name": "raised",
              "type": "uint256"
            },
            {
              "internalType": "uint256",
              "name": "timestamp",
              "type": "uint256"
            },
            {
              "internalType": "uint256",
              "name": "expiresAt",
              "type": "uint256"
            },
            {
              "internalType": "uint256",
              "name": "backers",
              "type": "uint256"
            },
            {
              "internalType": "enum Genesis.statusEnum",
              "name": "status",
              "type": "uint8"
            }
          ],
          "internalType": "struct Genesis.projectStruct[]",
          "name": "",
          "type": "tuple[]"
        }
      ],
      "stateMutability": "view",
      "type": "function"
    },
    {
      "inputs": [],
      "name": "owner",
      "outputs": [
        {
          "internalType": "address",
          "name": "",
          "type": "address"
        }
      ],
      "stateMutability": "view",
      "type": "function"
    },
    {
      "inputs": [
        {
          "internalType": "uint256",
          "name": "id",
          "type": "uint256"
        }
      ],
      "name": "payOutProject",
      "outputs": [
        {
          "internalType": "bool",
          "name": "",
          "type": "bool"
        }
      ],
      "stateMutability": "nonpayable",
      "type": "function"
    },
    {
      "inputs": [],
      "name": "projectCount",
      "outputs": [
        {
          "internalType": "uint256",
          "name": "",
          "type": "uint256"
        }
      ],
      "stateMutability": "view",
      "type": "function"
    },
    {
      "inputs": [
        {
          "internalType": "uint256",
          "name": "",
          "type": "uint256"
        }
      ],
      "name": "projectExist",
      "outputs": [
        {
          "internalType": "bool",
          "name": "",
          "type": "bool"
        }
      ],
      "stateMutability": "view",
      "type": "function"
    },
    {
      "inputs": [],
      "name": "projectTax",
      "outputs": [
        {
          "internalType": "uint256",
          "name": "",
          "type": "uint256"
        }
      ],
      "stateMutability": "view",
      "type": "function"
    },
    {
      "inputs": [
        {
          "internalType": "uint256",
          "name": "id",
          "type": "uint256"
        }
      ],
      "name": "requestRefund",
      "outputs": [
        {
          "internalType": "bool",
          "name": "",
          "type": "bool"
        }
      ],
      "stateMutability": "nonpayable",
      "type": "function"
    },
    {
      "inputs": [],
      "name": "stats",
      "outputs": [
        {
          "internalType": "uint256",
          "name": "totalProjects",
          "type": "uint256"
        },
        {
          "internalType": "uint256",
          "name": "totalBacking",
          "type": "uint256"
        },
        {
          "internalType": "uint256",
          "name": "totalDonations",
          "type": "uint256"
        }
      ],
      "stateMutability": "view",
      "type": "function"
    },
    {
      "inputs": [
        {
          "internalType": "uint256",
          "name": "id",
          "type": "uint256"
        },
        {
          "internalType": "string",
          "name": "title",
          "type": "string"
        },
        {
          "internalType": "string",
          "name": "description",
          "type": "string"
        },
        {
          "internalType": "string",
          "name": "slug",
          "type": "string"
        },
        {
          "internalType": "string",
          "name": "imageURL",
          "type": "string"
        },
        {
          "internalType": "uint256",
          "name": "expiresAt",
          "type": "uint256"
        }
      ],
      "name": "updateProject",
      "outputs": [
        {
          "internalType": "bool",
          "name": "",
          "type": "bool"
        }
      ],
      "stateMutability": "nonpayable",
      "type": "function"
    }
  ],
  "bytecode": "0x6080604052348015600f57600080fd5b50604051615f78380380615f788339818101604052810190602f919060b1565b336000806101000a81548173ffffffffffffffffffffffffffffffffffffffff021916908373ffffffffffffffffffffffffffffffffffffffff160217905550806001819055505060d9565b600080fd5b6000819050919050565b6091816080565b8114609b57600080fd5b50565b60008151905060ab81608a565b92915050565b60006020828403121560c45760c3607b565b5b600060d084828501609e565b91505092915050565b615e90806100e86000396000f3fe6080604052600436106101095760003560e01c8063a4b2409e11610095578063bee5cdca11610064578063bee5cdca146103be578063c9168b72146103fb578063d24cd3ec14610438578063d80528ae14610463578063dcc601281461049057610109565b8063a4b2409e146102dc578063b393434d14610319578063b531dcba14610356578063b69ef8a81461039357610109565b80635231de83116100dc5780635231de83146101dc578063814e5197146102075780638593054b146102445780638da5cb5b146102815780639f39a194146102ac57610109565b8063012865a41461010e57806336fbad261461014b5780633e45c8af146101765780634cd0cb281461019f575b600080fd5b34801561011a57600080fd5b506101356004803603810190610130919061465c565b6104bb565b6040516101429190614774565b60405180910390f35b34801561015757600080fd5b50610160610b47565b60405161016d919061479e565b60405180910390f35b34801561018257600080fd5b5061019d600480360381019061019891906147b9565b610b4d565b005b3480156101ab57600080fd5b506101c660048036038101906101c191906147b9565b610be5565b6040516101d39190614774565b60405180910390f35b3480156101e857600080fd5b506101f1610de2565b6040516101fe9190614b07565b60405180910390f35b34801561021357600080fd5b5061022e60048036038101906102299190614b29565b611194565b60405161023b9190614774565b60405180910390f35b34801561025057600080fd5b5061026b600480360381019061026691906147b9565b611acf565b6040516102789190614774565b60405180910390f35b34801561028d57600080fd5b50610296611aef565b6040516102a39190614c35565b60405180910390f35b6102c660048036038101906102c191906147b9565b611b13565b6040516102d39190614774565b60405180910390f35b3480156102e857600080fd5b5061030360048036038101906102fe91906147b9565b612b0f565b6040516103109190614774565b60405180910390f35b34801561032557600080fd5b50610340600480360381019061033b9190614c50565b612fa7565b60405161034d9190614db2565b60405180910390f35b34801561036257600080fd5b5061037d600480360381019061037891906147b9565b6132f5565b60405161038a9190614774565b60405180910390f35b34801561039f57600080fd5b506103a86134ab565b6040516103b5919061479e565b60405180910390f35b3480156103ca57600080fd5b506103e560048036038101906103e091906147b9565b6134b1565b6040516103f29190614db2565b60405180910390f35b34801561040757600080fd5b50610422600480360381019061041d91906147b9565b613863565b60405161042f9190614ee7565b60405180910390f35b34801561044457600080fd5b5061044d61395a565b60405161045a919061479e565b60405180910390f35b34801561046f57600080fd5b50610478613960565b60405161048793929190614f09565b60405180910390f35b34801561049c57600080fd5b506104a5613978565b6040516104b29190614b07565b60405180910390f35b600080875111610500576040517f08c379a00000000000000000000000000000000000000000000000000000000081526004016104f790614f9d565b60405180910390fd5b6000865111610544576040517f08c379a000000000000000000000000000000000000000000000000000000000815260040161053b90615009565b60405180910390fd5b6000845111610588576040517f08c379a000000000000000000000000000000000000000000000000000000000815260040161057f90615075565b60405180910390fd5b60008551116105cc576040517f08c379a00000000000000000000000000000000000000000000000000000000081526004016105c3906150e1565b60405180910390fd5b6000831161060f576040517f08c379a00000000000000000000000000000000000000000000000000000000081526004016106069061514d565b60405180910390fd5b6106176143e6565b60025481600001818152505033816020019073ffffffffffffffffffffffffffffffffffffffff16908173ffffffffffffffffffffffffffffffffffffffff1681525050878160400181905250868160600181905250858160800181905250848160a00181905250838160c00181815250504281610100018181525050828161012001818152505060078190806001815401808255809150506001900390600052602060002090600c02016000909190919091506000820151816000015560208201518160010160006101000a81548173ffffffffffffffffffffffffffffffffffffffff021916908373ffffffffffffffffffffffffffffffffffffffff16021790555060408201518160020190816107319190615379565b5060608201518160030190816107479190615379565b50608082015181600401908161075d9190615379565b5060a08201518160050190816107739190615379565b5060c0820151816006015560e082015181600701556101008201518160080155610120820151816009015561014082015181600a015561016082015181600b0160006101000a81548160ff021916908360048111156107d5576107d46148e1565b5b021790555050506001600b6000600254815260200190815260200160002060006101000a81548160ff02191690831515021790555080600a8760405161081b9190615487565b90815260200160405180910390206000820151816000015560208201518160010160006101000a81548173ffffffffffffffffffffffffffffffffffffffff021916908373ffffffffffffffffffffffffffffffffffffffff160217905550604082015181600201908161088f9190615379565b5060608201518160030190816108a59190615379565b5060808201518160040190816108bb9190615379565b5060a08201518160050190816108d19190615379565b5060c0820151816006015560e082015181600701556101008201518160080155610120820151816009015561014082015181600a015561016082015181600b0160006101000a81548160ff02191690836004811115610933576109326148e1565b5b0217905550905050600860003373ffffffffffffffffffffffffffffffffffffffff1673ffffffffffffffffffffffffffffffffffffffff1681526020019081526020016000208190806001815401808255809150506001900390600052602060002090600c02016000909190919091506000820151816000015560208201518160010160006101000a81548173ffffffffffffffffffffffffffffffffffffffff021916908373ffffffffffffffffffffffffffffffffffffffff1602179055506040820151816002019081610a0a9190615379565b506060820151816003019081610a209190615379565b506080820151816004019081610a369190615379565b5060a0820151816005019081610a4c9190615379565b5060c0820151816006015560e082015181600701556101008201518160080155610120820151816009015561014082015181600a015561016082015181600b0160006101000a81548160ff02191690836004811115610aae57610aad6148e1565b5b02179055505050600160046000016000828254610acb91906154cd565b925050819055503373ffffffffffffffffffffffffffffffffffffffff167faee8e5d3bbb2f71a951b5632cee20f7ac487b9f8ab4f66a236f7694b13af7c6a60026000815480929190610b1d90615501565b9190505542604051610b30929190615595565b60405180910390a260019150509695505050505050565b60025481565b60008054906101000a900473ffffffffffffffffffffffffffffffffffffffff1673ffffffffffffffffffffffffffffffffffffffff163373ffffffffffffffffffffffffffffffffffffffff1614610bdb576040517f08c379a0000000000000000000000000000000000000000000000000000000008152600401610bd29061561d565b60405180910390fd5b8060018190555050565b6000806004811115610bfa57610bf96148e1565b5b60078381548110610c0e57610c0d61563d565b5b90600052602060002090600c0201600b0160009054906101000a900460ff166004811115610c3f57610c3e6148e1565b5b14610c7f576040517f08c379a0000000000000000000000000000000000000000000000000000000008152600401610c76906156b8565b60405180910390fd5b60078281548110610c9357610c9261563d565b5b90600052602060002090600c020160010160009054906101000a900473ffffffffffffffffffffffffffffffffffffffff1673ffffffffffffffffffffffffffffffffffffffff163373ffffffffffffffffffffffffffffffffffffffff1614610d32576040517f08c379a0000000000000000000000000000000000000000000000000000000008152600401610d2990615724565b60405180910390fd5b600360078381548110610d4857610d4761563d565b5b90600052602060002090600c0201600b0160006101000a81548160ff02191690836004811115610d7b57610d7a6148e1565b5b0217905550610d8982613ced565b3373ffffffffffffffffffffffffffffffffffffffff167faee8e5d3bbb2f71a951b5632cee20f7ac487b9f8ab4f66a236f7694b13af7c6a8342604051610dd1929190615790565b60405180910390a260019050919050565b6060600860003373ffffffffffffffffffffffffffffffffffffffff1673ffffffffffffffffffffffffffffffffffffffff168152602001908152602001600020805480602002602001604051908101604052809291908181526020016000905b8282101561118b57838290600052602060002090600c020160405180610180016040529081600082015481526020016001820160009054906101000a900473ffffffffffffffffffffffffffffffffffffffff1673ffffffffffffffffffffffffffffffffffffffff1673ffffffffffffffffffffffffffffffffffffffff168152602001600282018054610ed79061519c565b80601f0160208091040260200160405190810160405280929190818152602001828054610f039061519c565b8015610f505780601f10610f2557610100808354040283529160200191610f50565b820191906000526020600020905b815481529060010190602001808311610f3357829003601f168201915b50505050508152602001600382018054610f699061519c565b80601f0160208091040260200160405190810160405280929190818152602001828054610f959061519c565b8015610fe25780601f10610fb757610100808354040283529160200191610fe2565b820191906000526020600020905b815481529060010190602001808311610fc557829003601f168201915b50505050508152602001600482018054610ffb9061519c565b80601f01602080910402602001604051908101604052809291908181526020018280546110279061519c565b80156110745780601f1061104957610100808354040283529160200191611074565b820191906000526020600020905b81548152906001019060200180831161105757829003601f168201915b5050505050815260200160058201805461108d9061519c565b80601f01602080910402602001604051908101604052809291908181526020018280546110b99061519c565b80156111065780601f106110db57610100808354040283529160200191611106565b820191906000526020600020905b8154815290600101906020018083116110e957829003601f168201915b5050505050815260200160068201548152602001600782015481526020016008820154815260200160098201548152602001600a8201548152602001600b820160009054906101000a900460ff166004811115611166576111656148e1565b5b6004811115611178576111776148e1565b5b8152505081526020019060010190610e43565b50505050905090565b6000600b600088815260200190815260200160002060009054906101000a900460ff166111f6576040517f08c379a00000000000000000000000000000000000000000000000000000000081526004016111ed90615818565b60405180910390fd5b6007878154811061120a5761120961563d565b5b90600052602060002090600c020160010160009054906101000a900473ffffffffffffffffffffffffffffffffffffffff1673ffffffffffffffffffffffffffffffffffffffff163373ffffffffffffffffffffffffffffffffffffffff16146112a9576040517f08c379a00000000000000000000000000000000000000000000000000000000081526004016112a090615724565b60405180910390fd5b60008651116112ed576040517f08c379a00000000000000000000000000000000000000000000000000000000081526004016112e490614f9d565b60405180910390fd5b6000845111611331576040517f08c379a0000000000000000000000000000000000000000000000000000000008152600401611328906150e1565b60405180910390fd5b6000855111611375576040517f08c379a000000000000000000000000000000000000000000000000000000000815260040161136c90615009565b60405180910390fd5b60008351116113b9576040517f08c379a00000000000000000000000000000000000000000000000000000000081526004016113b090615075565b60405180910390fd5b6000600788815481106113cf576113ce61563d565b5b90600052602060002090600c020160040180546113eb9061519c565b80601f01602080910402602001604051908101604052809291908181526020018280546114179061519c565b80156114645780601f1061143957610100808354040283529160200191611464565b820191906000526020600020905b81548152906001019060200180831161144757829003601f168201915b5050505050905086600789815481106114805761147f61563d565b5b90600052602060002090600c0201600201908161149d9190615379565b5085600789815481106114b3576114b261563d565b5b90600052602060002090600c020160030190816114d09190615379565b5084600789815481106114e6576114e561563d565b5b90600052602060002090600c020160040190816115039190615379565b5083600789815481106115195761151861563d565b5b90600052602060002090600c020160050190816115369190615379565b50826007898154811061154c5761154b61563d565b5b90600052602060002090600c0201600901819055506000600789815481106115775761157661563d565b5b90600052602060002090600c020160010160009054906101000a900473ffffffffffffffffffffffffffffffffffffffff16905060005b600860008373ffffffffffffffffffffffffffffffffffffffff1673ffffffffffffffffffffffffffffffffffffffff1681526020019081526020016000208054905081101561182b5789600860008473ffffffffffffffffffffffffffffffffffffffff1673ffffffffffffffffffffffffffffffffffffffff168152602001908152602001600020828154811061164a5761164961563d565b5b90600052602060002090600c0201600001540361181e5760078a815481106116755761167461563d565b5b90600052602060002090600c0201600860008473ffffffffffffffffffffffffffffffffffffffff1673ffffffffffffffffffffffffffffffffffffffff16815260200190815260200160002082815481106116d4576116d361563d565b5b90600052602060002090600c0201600082015481600001556001820160009054906101000a900473ffffffffffffffffffffffffffffffffffffffff168160010160006101000a81548173ffffffffffffffffffffffffffffffffffffffff021916908373ffffffffffffffffffffffffffffffffffffffff16021790555060028201816002019081611767919061584e565b506003820181600301908161177c919061584e565b5060048201816004019081611791919061584e565b50600582018160050190816117a6919061584e565b5060068201548160060155600782015481600701556008820154816008015560098201548160090155600a82015481600a0155600b820160009054906101000a900460ff1681600b0160006101000a81548160ff02191690836004811115611811576118106148e1565b5b021790555090505061182b565b80806001019150506115ae565b50600a8260405161183c9190615487565b90815260200160405180910390206000808201600090556001820160006101000a81549073ffffffffffffffffffffffffffffffffffffffff021916905560028201600061188a919061446f565b60038201600061189a919061446f565b6004820160006118aa919061446f565b6005820160006118ba919061446f565b6006820160009055600782016000905560088201600090556009820160009055600a820160009055600b820160006101000a81549060ff021916905550506007898154811061190c5761190b61563d565b5b90600052602060002090600c0201600a8760405161192a9190615487565b9081526020016040518091039020600082015481600001556001820160009054906101000a900473ffffffffffffffffffffffffffffffffffffffff168160010160006101000a81548173ffffffffffffffffffffffffffffffffffffffff021916908373ffffffffffffffffffffffffffffffffffffffff160217905550600282018160020190816119bd919061584e565b50600382018160030190816119d2919061584e565b50600482018160040190816119e7919061584e565b50600582018160050190816119fc919061584e565b5060068201548160060155600782015481600701556008820154816008015560098201548160090155600a82015481600a0155600b820160009054906101000a900460ff1681600b0160006101000a81548160ff02191690836004811115611a6757611a666148e1565b5b02179055509050503373ffffffffffffffffffffffffffffffffffffffff167faee8e5d3bbb2f71a951b5632cee20f7ac487b9f8ab4f66a236f7694b13af7c6a8a42604051611ab7929190615982565b60405180910390a26001925050509695505050505050565b600b6020528060005260406000206000915054906101000a900460ff1681565b60008054906101000a900473ffffffffffffffffffffffffffffffffffffffff1681565b6000803411611b57576040517f08c379a0000000000000000000000000000000000000000000000000000000008152600401611b4e90615a0a565b60405180910390fd5b600b600083815260200190815260200160002060009054906101000a900460ff16611bb7576040517f08c379a0000000000000000000000000000000000000000000000000000000008152600401611bae90615a76565b60405180910390fd5b60006004811115611bcb57611bca6148e1565b5b60078381548110611bdf57611bde61563d565b5b90600052602060002090600c0201600b0160009054906101000a900460ff166004811115611c1057611c0f6148e1565b5b14611c50576040517f08c379a0000000000000000000000000000000000000000000000000000000008152600401611c47906156b8565b60405180910390fd5b600160046001016000828254611c6691906154cd565b925050819055503460046002016000828254611c8291906154cd565b925050819055503460078381548110611c9e57611c9d61563d565b5b90600052602060002090600c02016007016000828254611cbe91906154cd565b92505081905550600160078381548110611cdb57611cda61563d565b5b90600052602060002090600c0201600a016000828254611cfb91906154cd565b925050819055506009600083815260200190815260200160002060405180608001604052803373ffffffffffffffffffffffffffffffffffffffff16815260200134815260200142815260200160001515815250908060018154018082558091505060019003906000526020600020906004020160009091909190915060008201518160000160006101000a81548173ffffffffffffffffffffffffffffffffffffffff021916908373ffffffffffffffffffffffffffffffffffffffff160217905550602082015181600101556040820151816002015560608201518160030160006101000a81548160ff0219169083151502179055505050600060078381548110611e0b57611e0a61563d565b5b90600052602060002090600c020160010160009054906101000a900473ffffffffffffffffffffffffffffffffffffffff16905060005b600860008373ffffffffffffffffffffffffffffffffffffffff1673ffffffffffffffffffffffffffffffffffffffff1681526020019081526020016000208054905081101561201f5783600860008473ffffffffffffffffffffffffffffffffffffffff1673ffffffffffffffffffffffffffffffffffffffff1681526020019081526020016000208281548110611ede57611edd61563d565b5b90600052602060002090600c020160000154036120125760078481548110611f0957611f0861563d565b5b90600052602060002090600c020160070154600860008473ffffffffffffffffffffffffffffffffffffffff1673ffffffffffffffffffffffffffffffffffffffff1681526020019081526020016000208281548110611f6c57611f6b61563d565b5b90600052602060002090600c02016007018190555060078481548110611f9557611f9461563d565b5b90600052602060002090600c0201600a0154600860008473ffffffffffffffffffffffffffffffffffffffff1673ffffffffffffffffffffffffffffffffffffffff1681526020019081526020016000208281548110611ff857611ff761563d565b5b90600052602060002090600c0201600a018190555061201f565b8080600101915050611e42565b50600783815481106120345761203361563d565b5b90600052602060002090600c0201600a600785815481106120585761205761563d565b5b90600052602060002090600c02016004016040516120769190615b19565b9081526020016040518091039020600082015481600001556001820160009054906101000a900473ffffffffffffffffffffffffffffffffffffffff168160010160006101000a81548173ffffffffffffffffffffffffffffffffffffffff021916908373ffffffffffffffffffffffffffffffffffffffff16021790555060028201816002019081612109919061584e565b506003820181600301908161211e919061584e565b5060048201816004019081612133919061584e565b5060058201816005019081612148919061584e565b5060068201548160060155600782015481600701556008820154816008015560098201548160090155600a82015481600a0155600b820160009054906101000a900460ff1681600b0160006101000a81548160ff021916908360048111156121b3576121b26148e1565b5b02179055509050503373ffffffffffffffffffffffffffffffffffffffff167faee8e5d3bbb2f71a951b5632cee20f7ac487b9f8ab4f66a236f7694b13af7c6a8442604051612203929190615b7c565b60405180910390a26007838154811061221f5761221e61563d565b5b90600052602060002090600c020160060154600784815481106122455761224461563d565b5b90600052602060002090600c020160070154106126b9576001600784815481106122725761227161563d565b5b90600052602060002090600c0201600b0160006101000a81548160ff021916908360048111156122a5576122a46148e1565b5b021790555060005b60086000600786815481106122c5576122c461563d565b5b90600052602060002090600c020160010160009054906101000a900473ffffffffffffffffffffffffffffffffffffffff1673ffffffffffffffffffffffffffffffffffffffff1673ffffffffffffffffffffffffffffffffffffffff168152602001908152602001600020805490508110156124cc578360086000600787815481106123555761235461563d565b5b90600052602060002090600c020160010160009054906101000a900473ffffffffffffffffffffffffffffffffffffffff1673ffffffffffffffffffffffffffffffffffffffff1673ffffffffffffffffffffffffffffffffffffffff16815260200190815260200160002082815481106123d3576123d261563d565b5b90600052602060002090600c020160000154036124bf57600160086000600787815481106124045761240361563d565b5b90600052602060002090600c020160010160009054906101000a900473ffffffffffffffffffffffffffffffffffffffff1673ffffffffffffffffffffffffffffffffffffffff1673ffffffffffffffffffffffffffffffffffffffff16815260200190815260200160002082815481106124825761248161563d565b5b90600052602060002090600c0201600b0160006101000a81548160ff021916908360048111156124b5576124b46148e1565b5b02179055506124cc565b80806001019150506122ad565b50600783815481106124e1576124e061563d565b5b90600052602060002090600c0201600a600785815481106125055761250461563d565b5b90600052602060002090600c02016004016040516125239190615b19565b9081526020016040518091039020600082015481600001556001820160009054906101000a900473ffffffffffffffffffffffffffffffffffffffff168160010160006101000a81548173ffffffffffffffffffffffffffffffffffffffff021916908373ffffffffffffffffffffffffffffffffffffffff160217905550600282018160020190816125b6919061584e565b50600382018160030190816125cb919061584e565b50600482018160040190816125e0919061584e565b50600582018160050190816125f5919061584e565b5060068201548160060155600782015481600701556008820154816008015560098201548160090155600a82015481600a0155600b820160009054906101000a900460ff1681600b0160006101000a81548160ff021916908360048111156126605761265f6148e1565b5b02179055509050506007838154811061267c5761267b61563d565b5b90600052602060002090600c0201600701546003600082825461269f91906154cd565b925050819055506126af83613e84565b6001915050612b0a565b600783815481106126cd576126cc61563d565b5b90600052602060002090600c0201600901544210612b04576002600784815481106126fb576126fa61563d565b5b90600052602060002090600c0201600b0160006101000a81548160ff0219169083600481111561272e5761272d6148e1565b5b021790555060005b600860006007868154811061274e5761274d61563d565b5b90600052602060002090600c020160010160009054906101000a900473ffffffffffffffffffffffffffffffffffffffff1673ffffffffffffffffffffffffffffffffffffffff1673ffffffffffffffffffffffffffffffffffffffff16815260200190815260200160002080549050811015612955578360086000600787815481106127de576127dd61563d565b5b90600052602060002090600c020160010160009054906101000a900473ffffffffffffffffffffffffffffffffffffffff1673ffffffffffffffffffffffffffffffffffffffff1673ffffffffffffffffffffffffffffffffffffffff168152602001908152602001600020828154811061285c5761285b61563d565b5b90600052602060002090600c02016000015403612948576002600860006007878154811061288d5761288c61563d565b5b90600052602060002090600c020160010160009054906101000a900473ffffffffffffffffffffffffffffffffffffffff1673ffffffffffffffffffffffffffffffffffffffff1673ffffffffffffffffffffffffffffffffffffffff168152602001908152602001600020828154811061290b5761290a61563d565b5b90600052602060002090600c0201600b0160006101000a81548160ff0219169083600481111561293e5761293d6148e1565b5b0217905550612955565b8080600101915050612736565b506007838154811061296a5761296961563d565b5b90600052602060002090600c0201600a6007858154811061298e5761298d61563d565b5b90600052602060002090600c02016004016040516129ac9190615b19565b9081526020016040518091039020600082015481600001556001820160009054906101000a900473ffffffffffffffffffffffffffffffffffffffff168160010160006101000a81548173ffffffffffffffffffffffffffffffffffffffff021916908373ffffffffffffffffffffffffffffffffffffffff16021790555060028201816002019081612a3f919061584e565b5060038201816003019081612a54919061584e565b5060048201816004019081612a69919061584e565b5060058201816005019081612a7e919061584e565b5060068201548160060155600782015481600701556008820154816008015560098201548160090155600a82015481600a0155600b820160009054906101000a900460ff1681600b0160006101000a81548160ff02191690836004811115612ae957612ae86148e1565b5b0217905550905050612afa83613ced565b6001915050612b0a565b60019150505b919050565b600060026004811115612b2557612b246148e1565b5b60078381548110612b3957612b3861563d565b5b90600052602060002090600c0201600b0160009054906101000a900460ff166004811115612b6a57612b696148e1565b5b141580612bce575060036004811115612b8657612b856148e1565b5b60078381548110612b9a57612b9961563d565b5b90600052602060002090600c0201600b0160009054906101000a900460ff166004811115612bcb57612bca6148e1565b5b14155b612c0d576040517f08c379a0000000000000000000000000000000000000000000000000000000008152600401612c0490615c2a565b60405180910390fd5b600060078381548110612c2357612c2261563d565b5b90600052602060002090600c020160010160009054906101000a900473ffffffffffffffffffffffffffffffffffffffff16905060005b600860008373ffffffffffffffffffffffffffffffffffffffff1673ffffffffffffffffffffffffffffffffffffffff16815260200190815260200160002080549050811015612daa5783600860008473ffffffffffffffffffffffffffffffffffffffff1673ffffffffffffffffffffffffffffffffffffffff1681526020019081526020016000208281548110612cf657612cf561563d565b5b90600052602060002090600c02016000015403612d9d576002600860008473ffffffffffffffffffffffffffffffffffffffff1673ffffffffffffffffffffffffffffffffffffffff1681526020019081526020016000208281548110612d6057612d5f61563d565b5b90600052602060002090600c0201600b0160006101000a81548160ff02191690836004811115612d9357612d926148e1565b5b0217905550612daa565b8080600101915050612c5a565b5060078381548110612dbf57612dbe61563d565b5b90600052602060002090600c0201600a60078581548110612de357612de261563d565b5b90600052602060002090600c0201600401604051612e019190615b19565b9081526020016040518091039020600082015481600001556001820160009054906101000a900473ffffffffffffffffffffffffffffffffffffffff168160010160006101000a81548173ffffffffffffffffffffffffffffffffffffffff021916908373ffffffffffffffffffffffffffffffffffffffff16021790555060028201816002019081612e94919061584e565b5060038201816003019081612ea9919061584e565b5060048201816004019081612ebe919061584e565b5060058201816005019081612ed3919061584e565b5060068201548160060155600782015481600701556008820154816008015560098201548160090155600a82015481600a0155600b820160009054906101000a900460ff1681600b0160006101000a81548160ff02191690836004811115612f3e57612f3d6148e1565b5b0217905550905050600260078481548110612f5c57612f5b61563d565b5b90600052602060002090600c0201600b0160006101000a81548160ff02191690836004811115612f8f57612f8e6148e1565b5b0217905550612f9d83613ced565b6001915050919050565b612faf6143e6565b600a82604051612fbf9190615487565b908152602001604051809103902060405180610180016040529081600082015481526020016001820160009054906101000a900473ffffffffffffffffffffffffffffffffffffffff1673ffffffffffffffffffffffffffffffffffffffff1673ffffffffffffffffffffffffffffffffffffffff1681526020016002820180546130499061519c565b80601f01602080910402602001604051908101604052809291908181526020018280546130759061519c565b80156130c25780601f10613097576101008083540402835291602001916130c2565b820191906000526020600020905b8154815290600101906020018083116130a557829003601f168201915b505050505081526020016003820180546130db9061519c565b80601f01602080910402602001604051908101604052809291908181526020018280546131079061519c565b80156131545780601f1061312957610100808354040283529160200191613154565b820191906000526020600020905b81548152906001019060200180831161313757829003601f168201915b5050505050815260200160048201805461316d9061519c565b80601f01602080910402602001604051908101604052809291908181526020018280546131999061519c565b80156131e65780601f106131bb576101008083540402835291602001916131e6565b820191906000526020600020905b8154815290600101906020018083116131c957829003601f168201915b505050505081526020016005820180546131ff9061519c565b80601f016020809104026020016040519081016040528092919081815260200182805461322b9061519c565b80156132785780601f1061324d57610100808354040283529160200191613278565b820191906000526020600020905b81548152906001019060200180831161325b57829003601f168201915b5050505050815260200160068201548152602001600782015481526020016008820154815260200160098201548152602001600a8201548152602001600b820160009054906101000a900460ff1660048111156132d8576132d76148e1565b5b60048111156132ea576132e96148e1565b5b815250509050919050565b60006001600481111561330b5761330a6148e1565b5b6007838154811061331f5761331e61563d565b5b90600052602060002090600c0201600b0160009054906101000a900460ff1660048111156133505761334f6148e1565b5b14613390576040517f08c379a000000000000000000000000000000000000000000000000000000000815260040161338790615c96565b60405180910390fd5b600782815481106133a4576133a361563d565b5b90600052602060002090600c020160010160009054906101000a900473ffffffffffffffffffffffffffffffffffffffff1673ffffffffffffffffffffffffffffffffffffffff163373ffffffffffffffffffffffffffffffffffffffff16148061345a575060008054906101000a900473ffffffffffffffffffffffffffffffffffffffff1673ffffffffffffffffffffffffffffffffffffffff163373ffffffffffffffffffffffffffffffffffffffff16145b613499576040517f08c379a000000000000000000000000000000000000000000000000000000000815260040161349090615724565b60405180910390fd5b6134a282613e84565b60019050919050565b60035481565b6134b96143e6565b600b600083815260200190815260200160002060009054906101000a900460ff16613519576040517f08c379a000000000000000000000000000000000000000000000000000000000815260040161351090615a76565b60405180910390fd5b6007828154811061352d5761352c61563d565b5b90600052602060002090600c020160405180610180016040529081600082015481526020016001820160009054906101000a900473ffffffffffffffffffffffffffffffffffffffff1673ffffffffffffffffffffffffffffffffffffffff1673ffffffffffffffffffffffffffffffffffffffff1681526020016002820180546135b79061519c565b80601f01602080910402602001604051908101604052809291908181526020018280546135e39061519c565b80156136305780601f1061360557610100808354040283529160200191613630565b820191906000526020600020905b81548152906001019060200180831161361357829003601f168201915b505050505081526020016003820180546136499061519c565b80601f01602080910402602001604051908101604052809291908181526020018280546136759061519c565b80156136c25780601f10613697576101008083540402835291602001916136c2565b820191906000526020600020905b8154815290600101906020018083116136a557829003601f168201915b505050505081526020016004820180546136db9061519c565b80601f01602080910402602001604051908101604052809291908181526020018280546137079061519c565b80156137545780601f1061372957610100808354040283529160200191613754565b820191906000526020600020905b81548152906001019060200180831161373757829003601f168201915b5050505050815260200160058201805461376d9061519c565b80601f01602080910402602001604051908101604052809291908181526020018280546137999061519c565b80156137e65780601f106137bb576101008083540402835291602001916137e6565b820191906000526020600020905b8154815290600101906020018083116137c957829003601f168201915b5050505050815260200160068201548152602001600782015481526020016008820154815260200160098201548152602001600a8201548152602001600b820160009054906101000a900460ff166004811115613846576138456148e1565b5b6004811115613858576138576148e1565b5b815250509050919050565b606060096000838152602001908152602001600020805480602002602001604051908101604052809291908181526020016000905b8282101561394f57838290600052602060002090600402016040518060800160405290816000820160009054906101000a900473ffffffffffffffffffffffffffffffffffffffff1673ffffffffffffffffffffffffffffffffffffffff1673ffffffffffffffffffffffffffffffffffffffff16815260200160018201548152602001600282015481526020016003820160009054906101000a900460ff16151515158152505081526020019060010190613898565b505050509050919050565b60015481565b60048060000154908060010154908060020154905083565b60606007805480602002602001604051908101604052809291908181526020016000905b82821015613ce457838290600052602060002090600c020160405180610180016040529081600082015481526020016001820160009054906101000a900473ffffffffffffffffffffffffffffffffffffffff1673ffffffffffffffffffffffffffffffffffffffff1673ffffffffffffffffffffffffffffffffffffffff168152602001600282018054613a309061519c565b80601f0160208091040260200160405190810160405280929190818152602001828054613a5c9061519c565b8015613aa95780601f10613a7e57610100808354040283529160200191613aa9565b820191906000526020600020905b815481529060010190602001808311613a8c57829003601f168201915b50505050508152602001600382018054613ac29061519c565b80601f0160208091040260200160405190810160405280929190818152602001828054613aee9061519c565b8015613b3b5780601f10613b1057610100808354040283529160200191613b3b565b820191906000526020600020905b815481529060010190602001808311613b1e57829003601f168201915b50505050508152602001600482018054613b549061519c565b80601f0160208091040260200160405190810160405280929190818152602001828054613b809061519c565b8015613bcd5780601f10613ba257610100808354040283529160200191613bcd565b820191906000526020600020905b815481529060010190602001808311613bb057829003601f168201915b50505050508152602001600582018054613be69061519c565b80601f0160208091040260200160405190810160405280929190818152602001828054613c129061519c565b8015613c5f5780601f10613c3457610100808354040283529160200191613c5f565b820191906000526020600020905b815481529060010190602001808311613c4257829003601f168201915b5050505050815260200160068201548152602001600782015481526020016008820154815260200160098201548152602001600a8201548152602001600b820160009054906101000a900460ff166004811115613cbf57613cbe6148e1565b5b6004811115613cd157613cd06148e1565b5b815250508152602001906001019061399c565b50505050905090565b60005b6009600083815260200190815260200160002080549050811015613e80576000600960008481526020019081526020016000208281548110613d3557613d3461563d565b5b906000526020600020906004020160000160009054906101000a900473ffffffffffffffffffffffffffffffffffffffff1690506000600960008581526020019081526020016000208381548110613d9057613d8f61563d565b5b90600052602060002090600402016001015490506001600960008681526020019081526020016000208481548110613dcb57613dca61563d565b5b906000526020600020906004020160030160006101000a81548160ff02191690831515021790555042600960008681526020019081526020016000208481548110613e1957613e1861563d565b5b906000526020600020906004020160020181905550613e38828261436b565b600160046001016000828254613e4e9190615cb6565b925050819055508060046002016000828254613e6a9190615cb6565b9250508190555050508080600101915050613cf0565b5050565b600060078281548110613e9a57613e9961563d565b5b90600052602060002090600c02016007015490506000606460015483613ec09190615cea565b613eca9190615d5b565b9050600460078481548110613ee257613ee161563d565b5b90600052602060002090600c0201600b0160006101000a81548160ff02191690836004811115613f1557613f146148e1565b5b0217905550600060078481548110613f3057613f2f61563d565b5b90600052602060002090600c020160010160009054906101000a900473ffffffffffffffffffffffffffffffffffffffff16905060005b600860008373ffffffffffffffffffffffffffffffffffffffff1673ffffffffffffffffffffffffffffffffffffffff168152602001908152602001600020805490508110156140b75784600860008473ffffffffffffffffffffffffffffffffffffffff1673ffffffffffffffffffffffffffffffffffffffff16815260200190815260200160002082815481106140035761400261563d565b5b90600052602060002090600c020160000154036140aa576004600860008473ffffffffffffffffffffffffffffffffffffffff1673ffffffffffffffffffffffffffffffffffffffff168152602001908152602001600020828154811061406d5761406c61563d565b5b90600052602060002090600c0201600b0160006101000a81548160ff021916908360048111156140a05761409f6148e1565b5b02179055506140b7565b8080600101915050613f67565b50600784815481106140cc576140cb61563d565b5b90600052602060002090600c0201600a600786815481106140f0576140ef61563d565b5b90600052602060002090600c020160040160405161410e9190615b19565b9081526020016040518091039020600082015481600001556001820160009054906101000a900473ffffffffffffffffffffffffffffffffffffffff168160010160006101000a81548173ffffffffffffffffffffffffffffffffffffffff021916908373ffffffffffffffffffffffffffffffffffffffff160217905550600282018160020190816141a1919061584e565b50600382018160030190816141b6919061584e565b50600482018160040190816141cb919061584e565b50600582018160050190816141e0919061584e565b5060068201548160060155600782015481600701556008820154816008015560098201548160090155600a82015481600a0155600b820160009054906101000a900460ff1681600b0160006101000a81548160ff0219169083600481111561424b5761424a6148e1565b5b02179055509050506142ad6007858154811061426a5761426961563d565b5b90600052602060002090600c020160010160009054906101000a900473ffffffffffffffffffffffffffffffffffffffff1683856142a89190615cb6565b61436b565b6142d760008054906101000a900473ffffffffffffffffffffffffffffffffffffffff168361436b565b600784815481106142eb576142ea61563d565b5b90600052602060002090600c0201600701546003600082825461430e9190615cb6565b925050819055503373ffffffffffffffffffffffffffffffffffffffff167faee8e5d3bbb2f71a951b5632cee20f7ac487b9f8ab4f66a236f7694b13af7c6a854260405161435d929190615dd8565b60405180910390a250505050565b60008273ffffffffffffffffffffffffffffffffffffffff168260405161439190615e45565b60006040518083038185875af1925050503d80600081146143ce576040519150601f19603f3d011682016040523d82523d6000602084013e6143d3565b606091505b50509050806143e157600080fd5b505050565b60405180610180016040528060008152602001600073ffffffffffffffffffffffffffffffffffffffff16815260200160608152602001606081526020016060815260200160608152602001600081526020016000815260200160008152602001600081526020016000815260200160006004811115614469576144686148e1565b5b81525090565b50805461447b9061519c565b6000825580601f1061448d57506144ac565b601f0160209004906000526020600020908101906144ab91906144af565b5b50565b5b808211156144c85760008160009055506001016144b0565b5090565b6000604051905090565b600080fd5b600080fd5b600080fd5b600080fd5b6000601f19601f8301169050919050565b7f4e487b7100000000000000000000000000000000000000000000000000000000600052604160045260246000fd5b614533826144ea565b810181811067ffffffffffffffff82111715614552576145516144fb565b5b80604052505050565b60006145656144cc565b9050614571828261452a565b919050565b600067ffffffffffffffff821115614591576145906144fb565b5b61459a826144ea565b9050602081019050919050565b82818337600083830152505050565b60006145c96145c484614576565b61455b565b9050828152602081018484840111156145e5576145e46144e5565b5b6145f08482856145a7565b509392505050565b600082601f83011261460d5761460c6144e0565b5b813561461d8482602086016145b6565b91505092915050565b6000819050919050565b61463981614626565b811461464457600080fd5b50565b60008135905061465681614630565b92915050565b60008060008060008060c08789031215614679576146786144d6565b5b600087013567ffffffffffffffff811115614697576146966144db565b5b6146a389828a016145f8565b965050602087013567ffffffffffffffff8111156146c4576146c36144db565b5b6146d089828a016145f8565b955050604087013567ffffffffffffffff8111156146f1576146f06144db565b5b6146fd89828a016145f8565b945050606087013567ffffffffffffffff81111561471e5761471d6144db565b5b61472a89828a016145f8565b935050608061473b89828a01614647565b92505060a061474c89828a01614647565b9150509295509295509295565b60008115159050919050565b61476e81614759565b82525050565b60006020820190506147896000830184614765565b92915050565b61479881614626565b82525050565b60006020820190506147b3600083018461478f565b92915050565b6000602082840312156147cf576147ce6144d6565b5b60006147dd84828501614647565b91505092915050565b600081519050919050565b600082825260208201905092915050565b6000819050602082019050919050565b61481b81614626565b82525050565b600073ffffffffffffffffffffffffffffffffffffffff82169050919050565b600061484c82614821565b9050919050565b61485c81614841565b82525050565b600081519050919050565b600082825260208201905092915050565b60005b8381101561489c578082015181840152602081019050614881565b60008484015250505050565b60006148b382614862565b6148bd818561486d565b93506148cd81856020860161487e565b6148d6816144ea565b840191505092915050565b7f4e487b7100000000000000000000000000000000000000000000000000000000600052602160045260246000fd5b60058110614921576149206148e1565b5b50565b600081905061493282614910565b919050565b600061494282614924565b9050919050565b61495281614937565b82525050565b6000610180830160008301516149716000860182614812565b5060208301516149846020860182614853565b506040830151848203604086015261499c82826148a8565b915050606083015184820360608601526149b682826148a8565b915050608083015184820360808601526149d082826148a8565b91505060a083015184820360a08601526149ea82826148a8565b91505060c08301516149ff60c0860182614812565b5060e0830151614a1260e0860182614812565b50610100830151614a27610100860182614812565b50610120830151614a3c610120860182614812565b50610140830151614a51610140860182614812565b50610160830151614a66610160860182614949565b508091505092915050565b6000614a7d8383614958565b905092915050565b6000602082019050919050565b6000614a9d826147e6565b614aa781856147f1565b935083602082028501614ab985614802565b8060005b85811015614af55784840389528151614ad68582614a71565b9450614ae183614a85565b925060208a01995050600181019050614abd565b50829750879550505050505092915050565b60006020820190508181036000830152614b218184614a92565b905092915050565b60008060008060008060c08789031215614b4657614b456144d6565b5b6000614b5489828a01614647565b965050602087013567ffffffffffffffff811115614b7557614b746144db565b5b614b8189828a016145f8565b955050604087013567ffffffffffffffff811115614ba257614ba16144db565b5b614bae89828a016145f8565b945050606087013567ffffffffffffffff811115614bcf57614bce6144db565b5b614bdb89828a016145f8565b935050608087013567ffffffffffffffff811115614bfc57614bfb6144db565b5b614c0889828a016145f8565b92505060a0614c1989828a01614647565b9150509295509295509295565b614c2f81614841565b82525050565b6000602082019050614c4a6000830184614c26565b92915050565b600060208284031215614c6657614c656144d6565b5b600082013567ffffffffffffffff811115614c8457614c836144db565b5b614c90848285016145f8565b91505092915050565b600061018083016000830151614cb26000860182614812565b506020830151614cc56020860182614853565b5060408301518482036040860152614cdd82826148a8565b91505060608301518482036060860152614cf782826148a8565b91505060808301518482036080860152614d1182826148a8565b91505060a083015184820360a0860152614d2b82826148a8565b91505060c0830151614d4060c0860182614812565b5060e0830151614d5360e0860182614812565b50610100830151614d68610100860182614812565b50610120830151614d7d610120860182614812565b50610140830151614d92610140860182614812565b50610160830151614da7610160860182614949565b508091505092915050565b60006020820190508181036000830152614dcc8184614c99565b905092915050565b600081519050919050565b600082825260208201905092915050565b6000819050602082019050919050565b614e0981614759565b82525050565b608082016000820151614e256000850182614853565b506020820151614e386020850182614812565b506040820151614e4b6040850182614812565b506060820151614e5e6060850182614e00565b50505050565b6000614e708383614e0f565b60808301905092915050565b6000602082019050919050565b6000614e9482614dd4565b614e9e8185614ddf565b9350614ea983614df0565b8060005b83811015614eda578151614ec18882614e64565b9750614ecc83614e7c565b925050600181019050614ead565b5085935050505092915050565b60006020820190508181036000830152614f018184614e89565b905092915050565b6000606082019050614f1e600083018661478f565b614f2b602083018561478f565b614f38604083018461478f565b949350505050565b600082825260208201905092915050565b7f5469746c652063616e6e6f7420626520656d7074790000000000000000000000600082015250565b6000614f87601583614f40565b9150614f9282614f51565b602082019050919050565b60006020820190508181036000830152614fb681614f7a565b9050919050565b7f4465736372697074696f6e2063616e6e6f7420626520656d7074790000000000600082015250565b6000614ff3601b83614f40565b9150614ffe82614fbd565b602082019050919050565b6000602082019050818103600083015261502281614fe6565b9050919050565b7f496d61676555524c2063616e6e6f7420626520656d7074790000000000000000600082015250565b600061505f601883614f40565b915061506a82615029565b602082019050919050565b6000602082019050818103600083015261508e81615052565b9050919050565b7f536c75672063616e6e6f7420626520656d707479000000000000000000000000600082015250565b60006150cb601483614f40565b91506150d682615095565b602082019050919050565b600060208201905081810360008301526150fa816150be565b9050919050565b7f436f73742063616e6e6f74206265207a65726f00000000000000000000000000600082015250565b6000615137601383614f40565b915061514282615101565b602082019050919050565b600060208201905081810360008301526151668161512a565b9050919050565b7f4e487b7100000000000000000000000000000000000000000000000000000000600052602260045260246000fd5b600060028204905060018216806151b457607f821691505b6020821081036151c7576151c661516d565b5b50919050565b60008190508160005260206000209050919050565b60006020601f8301049050919050565b600082821b905092915050565b60006008830261522f7fffffffffffffffffffffffffffffffffffffffffffffffffffffffffffffffff826151f2565b61523986836151f2565b95508019841693508086168417925050509392505050565b6000819050919050565b600061527661527161526c84614626565b615251565b614626565b9050919050565b6000819050919050565b6152908361525b565b6152a461529c8261527d565b8484546151ff565b825550505050565b600090565b6152b96152ac565b6152c4818484615287565b505050565b5b818110156152e8576152dd6000826152b1565b6001810190506152ca565b5050565b601f82111561532d576152fe816151cd565b615307846151e2565b81016020851015615316578190505b61532a615322856151e2565b8301826152c9565b50505b505050565b600082821c905092915050565b600061535060001984600802615332565b1980831691505092915050565b6000615369838361533f565b9150826002028217905092915050565b61538282614862565b67ffffffffffffffff81111561539b5761539a6144fb565b5b6153a5825461519c565b6153b08282856152ec565b600060209050601f8311600181146153e357600084156153d1578287015190505b6153db858261535d565b865550615443565b601f1984166153f1866151cd565b60005b82811015615419578489015182556001820191506020850194506020810190506153f4565b868310156154365784890151615432601f89168261533f565b8355505b6001600288020188555050505b505050505050565b600081905092915050565b600061546182614862565b61546b818561544b565b935061547b81856020860161487e565b80840191505092915050565b60006154938284615456565b915081905092915050565b7f4e487b7100000000000000000000000000000000000000000000000000000000600052601160045260246000fd5b60006154d882614626565b91506154e383614626565b92508282019050808211156154fb576154fa61549e565b5b92915050565b600061550c82614626565b91507fffffffffffffffffffffffffffffffffffffffffffffffffffffffffffffffff820361553e5761553d61549e565b5b600182019050919050565b7f50524f4a45435420435245415445440000000000000000000000000000000000600082015250565b600061557f600f83614f40565b915061558a82615549565b602082019050919050565b60006060820190506155aa600083018561478f565b81810360208301526155bb81615572565b90506155ca604083018461478f565b9392505050565b7f4f776e6572207265736572766564206f6e6c7900000000000000000000000000600082015250565b6000615607601383614f40565b9150615612826155d1565b602082019050919050565b60006020820190508181036000830152615636816155fa565b9050919050565b7f4e487b7100000000000000000000000000000000000000000000000000000000600052603260045260246000fd5b7f50726f6a656374206e6f206c6f6e676572206f70656e65640000000000000000600082015250565b60006156a2601883614f40565b91506156ad8261566c565b602082019050919050565b600060208201905081810360008301526156d181615695565b9050919050565b7f556e617574686f72697a656420456e7469747900000000000000000000000000600082015250565b600061570e601383614f40565b9150615719826156d8565b602082019050919050565b6000602082019050818103600083015261573d81615701565b9050919050565b7f50524f4a4543542044454c455445440000000000000000000000000000000000600082015250565b600061577a600f83614f40565b915061578582615744565b602082019050919050565b60006060820190506157a5600083018561478f565b81810360208301526157b68161576d565b90506157c5604083018461478f565b9392505050565b7f50726f6a65637420646f6573206e6f7420657869737400000000000000000000600082015250565b6000615802601683614f40565b915061580d826157cc565b602082019050919050565b60006020820190508181036000830152615831816157f5565b9050919050565b6000815490506158478161519c565b9050919050565b81810361585c575050615934565b61586582615838565b67ffffffffffffffff81111561587e5761587d6144fb565b5b615888825461519c565b6158938282856152ec565b6000601f8311600181146158c257600084156158b0578287015490505b6158ba858261535d565b86555061592d565b601f1984166158d0876151cd565b96506158db866151cd565b60005b82811015615903578489015482556001820191506001850194506020810190506158de565b86831015615920578489015461591c601f89168261533f565b8355505b6001600288020188555050505b5050505050505b565b7f50524f4a45435420555044415445440000000000000000000000000000000000600082015250565b600061596c600f83614f40565b915061597782615936565b602082019050919050565b6000606082019050615997600083018561478f565b81810360208301526159a88161595f565b90506159b7604083018461478f565b9392505050565b7f4574686572206d7573742062652067726561746572207468616e207a65726f00600082015250565b60006159f4601f83614f40565b91506159ff826159be565b602082019050919050565b60006020820190508181036000830152615a23816159e7565b9050919050565b7f50726f6a656374206e6f7420666f756e64000000000000000000000000000000600082015250565b6000615a60601183614f40565b9150615a6b82615a2a565b602082019050919050565b60006020820190508181036000830152615a8f81615a53565b9050919050565b60008154615aa38161519c565b615aad818661544b565b94506001821660008114615ac85760018114615add57615b10565b60ff1983168652811515820286019350615b10565b615ae6856151cd565b60005b83811015615b0857815481890152600182019150602081019050615ae9565b838801955050505b50505092915050565b6000615b258284615a96565b915081905092915050565b7f50524f4a454354204241434b4544000000000000000000000000000000000000600082015250565b6000615b66600e83614f40565b9150615b7182615b30565b602082019050919050565b6000606082019050615b91600083018561478f565b8181036020830152615ba281615b59565b9050615bb1604083018461478f565b9392505050565b7f50726f6a656374206e6f74206d61726b656420617320726576657274206f722060008201527f64656c6574650000000000000000000000000000000000000000000000000000602082015250565b6000615c14602683614f40565b9150615c1f82615bb8565b604082019050919050565b60006020820190508181036000830152615c4381615c07565b9050919050565b7f50726f6a656374206e6f7420415050524f564544000000000000000000000000600082015250565b6000615c80601483614f40565b9150615c8b82615c4a565b602082019050919050565b60006020820190508181036000830152615caf81615c73565b9050919050565b6000615cc182614626565b9150615ccc83614626565b9250828203905081811115615ce457615ce361549e565b5b92915050565b6000615cf582614626565b9150615d0083614626565b9250828202615d0e81614626565b91508282048414831517615d2557615d2461549e565b5b5092915050565b7f4e487b7100000000000000000000000000000000000000000000000000000000600052601260045260246000fd5b6000615d6682614626565b9150615d7183614626565b925082615d8157615d80615d2c565b5b828204905092915050565b7f50524f4a4543542050414944204f555400000000000000000000000000000000600082015250565b6000615dc2601083614f40565b9150615dcd82615d8c565b602082019050919050565b6000606082019050615ded600083018561478f565b8181036020830152615dfe81615db5565b9050615e0d604083018461478f565b9392505050565b600081905092915050565b50565b6000615e2f600083615e14565b9150615e3a82615e1f565b600082019050919050565b6000615e5082615e22565b915081905091905056fea2646970667358221220438dab71f93090b3c5efcfb709d09b6ed42ed99114d9acaf8f9a5fb904970e3664736f6c634300081c0033",
  "linkReferences": {},
  "deployedLinkReferences": {}
}